:100000000C9461000C947E000C947E000C947E0095
:100010000C947E000C947E000C947E000C940E01D7
:100020000C947E000C947E000C947E000C947E0058
:100030000C947E000C947E000C94E7010C94BD019E
:100040000C948B010C947E000C947E000C947E002A
:100050000C947E000C947E000C947E000C947E0028
:100060000C947E000C947E00000000002400270009
:100070002A0000000000250028002B0000000000DE
:1000800023002600290004040404040404040202DA
:100090000202020203030303030301020408102007
:1000A0004080010204081020010204081020000012
:1000B0000007000201000003040600000000000029
:1000C000000011241FBECFEFD8E0DEBFCDBF11E08E
:1000D000A0E0B1E0E0E6FEE002C005900D92AA309B
:1000E000B107D9F711E0AAE0B1E001C01D92A83232
:1000F000B107E1F70E9478040C942E070C940000DD
:100100009C018A30910508F475C010920D0110927F
:100110000C0110920B0110920A0110921001109222
:100120001101109212011092130110921801809186
:10013000800080931B018091810080931C011092AC
:10014000810010928000109285001092840081E05E
:1001500086BB10926F008091B0008093190180914E
:10016000B10080931A011092B10082E08093B00038
:10017000C90187709070892B39F443E03695279533
:100180004A95E1F789EF0AC0C90183709070892B05
:1001900049F436952795369527958CE78093B300DB
:1001A00086E00DC020FD07C0369527958CE780932B
:1001B000B30085E004C08CE78093B30084E08093B3
:1001C0001D0182E087BB1092B20030930F01209393
:1001D0000E012FB7F89492E093BD80911D0180939A
:1001E000B100909370008BE08150F1F787E080932D
:1001F00081002FBF08958091180108958FB7F8945A
:100200002091140130911501409116015091170170
:10021000109218018FBFB901CA0108951F920F9261
:100220000FB60F921124EF92FF920F931F932F930B
:100230003F934F935F936F937F938F939F93AF936E
:10024000BF932091840030918500B09B0BC081E06A
:1002500086BB80910A0190910B01019690930B014E
:1002600080930A0160910C0170910D016F5F7F4FC7
:1002700080910E0190910F0168177907A8F11092F3
:100280000D0110920C0180910A0190910B01A0E0E8
:10029000B0E0DC019927882740E050E0820F931FEF
:1002A000A41FB51F2091100130911101409112013E
:1002B000509113017C018D01E21AF30A040B150B16
:1002C000E0921401F09215010093160110931701AA
:1002D0008093100190931101A0931201B093130128
:1002E00081E08093180104C070930D0160930C01AC
:1002F000BF91AF919F918F917F916F915F914F913E
:100300003F912F911F910F91FF90EF900F900FBE93
:100310000F901F9018951F920F920FB60F921124F5
:100320002F933F934F935F936F937F938F939F93FD
:10033000AF93BF93EF93FF9380910801882321F43B
:1003400087E061E00E94CA0480910901882321F4BA
:1003500088E061E00E94CA04FF91EF91BF91AF91E4
:100360009F918F917F916F915F914F913F912F91CD
:100370000F900FBE0F901F9018951F920F920FB6FF
:100380000F9211242F933F934F935F936F937F931B
:100390008F939F93AF93BF93EF93FF938091090146
:1003A000882321F488E060E00E94CA04FF91EF9165
:1003B000BF91AF919F918F917F916F915F914F917D
:1003C0003F912F910F900FBE0F901F9018951F9285
:1003D0000F920FB60F9211242F933F934F935F9379
:1003E0006F937F938F939F93AF93BF93EF93FF93FD
:1003F00080910801882321F487E060E00E94CA040C
:10040000FF91EF91BF91AF919F918F917F916F91EC
:100410005F914F913F912F910F900FBE0F901F90C2
:100420001895EF92FF920F931F937A018B01882307
:1004300029F1CB01BA0120E030E04FE753E40E94FC
:10044000A00688232CF0109208018FEF87BD3EC0D4
:10045000C801B70120E030E040E050E00E945105C3
:10046000181624F081E08093080124C0109208013E
:10047000C801B7010E94C20567BD28C0CB01BA01FF
:1004800020E030E048E452E40E94A00688232CF0EB
:100490001092090182E388BD19C0C801B70120E0AC
:1004A00030E040E050E00E945105181644F081E031
:1004B0008093090187E060E00E94CA0407C010929F
:1004C0000901C801B7010E94C20568BD16BC1F9191
:1004D0000F91FF90EF9008958FE061E00E94CA04B1
:1004E0008EE061E00E94CA0480E040E050E060E0FD
:1004F00070E00E941102089581E161E00E94CA0447
:1005000080E161E00E94CA0481E040E050E060E0E8
:1005100070E00E94110208958FE061E00E94CA0419
:100520008EE060E00E94CA0408958EE061E00E94BF
:10053000CA048FE060E00E94CA0408950F931F93DD
:10054000162F072F882319F00E94950202C00E94DF
:100550008C02812F902F9C0137FF02C020E030E0F9
:100560002333310514F022E330E0B901882777FD09
:100570008095982F0E94F005AB01BC0180E00E949D
:1005800011021F910F910895EF92FF920F931F9305
:100590007B018C0120E030E040E050E00E945105FA
:1005A000882319F40E946C0234C0C801B70120E00E
:1005B00030E040E050E00E9451058823A4F4C801D7
:1005C000B70120E030E048E452EC0E94A40620E0AD
:1005D00030E040E050E00E94ED040E94BD059B0128
:1005E000AC0180E013C0C801B70120E030E048E46E
:1005F00052E40E94A40620E030E040E050E00E9477
:10060000ED040E94BD059B01AC0181E0B9010E948F
:100610009E021F910F91FF90EF90089581E161E09C
:100620000E94CA0480E160E00E94CA04089580E14B
:1006300061E00E94CA0481E160E00E94CA0408955A
:100640000F931F93162F072F882319F00E9417036B
:1006500002C00E940E03812F902F9C0137FF02C021
:1006600020E030E02F3F310519F014F02FEF30E09B
:10067000B901882777FD8095982F0E94F005AB017E
:10068000BC0181E00E9411021F910F910895EF9229
:10069000FF920F931F937B018C0120E030E040E03C
:1006A00050E00E945105882319F40E947C0234C056
:1006B000C801B70120E030E040E050E00E94510561
:1006C0008823A4F4C801B70120E030E04FE753ECE1
:1006D0000E94A40620E030E040E050E00E94ED04DB
:1006E0000E94BD059B01AC0180E013C0C801B701A9
:1006F00020E030E04FE753E40E94A40620E030E021
:1007000040E050E00E94ED040E94BD059B01AC0159
:1007100081E0B9010E9420031F910F91FF90EF909B
:100720000895EF92FF920F931F930E94FB0088237E
:1007300009F4A4C00E94FE0060931E0170931F0183
:1007400080932001909321010E94EE052DEC3CEC5A
:100750004CEC5DE30E9455050E94BD057B018C01B8
:1007600070932301609322016115710569F460E0C3
:1007700070E080E090E00E94470360E070E080E07D
:1007800090E00E94C4027AC0CB0168EE73E00E9440
:1007900007079B017093270160932601C70168EE4C
:1007A00073E00E940707AC01909325018093240118
:1007B000225030402231310530F08AE090E09093B1
:1007C000270180932601425350404558534030F052
:1007D00084EF91E09093250180932401809124017E
:1007E0009091250123E0853892071CF084E893E07E
:1007F00005C08436910534F484E690E09093250199
:100800008093240160912401709125016456704009
:10081000882777FD8095982F0E94F0052091000190
:100820003091010140910201509103010E94550550
:1008300020E030E040E85FE30E94EC040E94C40244
:10084000609126017091270162507040882777FDE2
:100850008095982F0E94F0052091040130910501A8
:1008600040910601509107010E94550520E030E0BB
:1008700040E85FE30E94EC040E9447031F910F9140
:10088000FF90EF90089581E161E00E948B0480E188
:1008900061E00E948B048FE061E00E948B048EE097
:1008A00061E00E948B0487E061E00E948B0488E095
:1008B00061E00E948B0460E070E080E090E00E94C4
:1008C000470360E070E080E090E00E94C40278940A
:1008D00014BC84E085BD16BC87E085BB9FB7F89447
:1008E00080936E009FBF84E690E00E948000089590
:1008F000CF93DF930E9487040E944304C0E0D0E0BE
:100900000E9491032097E1F30E940000F9CF7894B0
:100910001092C1000895CF93DF93482F50E0CA0191
:1009200086569F4FFC0134914A575F4FFA018491DC
:10093000882369F190E0880F991FFC01E859FF4F67
:10094000A591B491FC01EE58FF4FC591D491662357
:1009500051F42FB7F8948C91932F909589238C9311
:10096000888189230BC0623061F42FB7F8948C9191
:10097000932F909589238C938881832B88832FBF15
:1009800006C09FB7F8948C91832B8C939FBFDF9107
:10099000CF910895282F30E0C90186569F4FFC0162
:1009A00094912A573F4FF90184918823A1F0E82FB1
:1009B000F0E0EE0FFF1FEE58FF4FA591B4912FB757
:1009C000F894662321F48C919095892302C08C9130
:1009D000892B8C932FBF08955058BB27AA270ED080
:1009E00075C166D130F06BD120F031F49F3F11F426
:1009F0001EF45BC10EF4E095E7FB51C1E92F77D1FE
:100A000080F3BA17620773078407950718F071F42B
:100A10009EF58FC10EF4E0950B2EBA2FA02D0B0181
:100A2000B90190010C01CA01A0011124FF27591B33
:100A300099F0593F50F4503E68F11A16F040A22F39
:100A4000232F342F4427585FF3CF469537952795AA
:100A5000A795F0405395C9F77EF41F16BA0B620BA9
:100A6000730B840BBAF09150A1F0FF0FBB1F661FF0
:100A7000771F881FC2F70EC0BA0F621F731F841F33
:100A800048F4879577956795B795F7959E3F08F059
:100A9000B3CF9395880F08F09927EE0F9795879518
:100AA0000895D9D008F481E008950CD00FC107D182
:100AB00040F0FED030F021F45F3F19F0F0C051114A
:100AC00039C1F3C014D198F39923C9F35523B1F375
:100AD000951B550BBB27AA2762177307840738F0AD
:100AE0009F5F5F4F220F331F441FAA1FA9F333D00C
:100AF0000E2E3AF0E0E830D091505040E695001CC0
:100B0000CAF729D0FE2F27D0660F771F881FBB1F7B
:100B1000261737074807AB07B0E809F0BB0B802D55
:100B2000BF01FF2793585F4F2AF09E3F510568F0A1
:100B3000B6C000C15F3FECF3983EDCF38695779535
:100B40006795B795F7959F5FC9F7880F911D9695A3
:100B5000879597F90895E1E0660F771F881FBB1FFF
:100B6000621773078407BA0720F0621B730B840BAC
:100B7000BA0BEE1F88F7E095089504D06894B11180
:100B8000D9C00895BCD088F09F5790F0B92F99270D
:100B9000B751A0F0D1F0660F771F881F991F1AF088
:100BA000BA95C9F712C0B13081F0C3D0B1E0089551
:100BB000C0C0672F782F8827B85F39F0B93FCCF3D2
:100BC000869577956795B395D9F73EF4909580957E
:100BD000709561957F4F8F4F9F4F0895E89409C09E
:100BE00097FB3EF490958095709561957F4F8F4F60
:100BF0009F4F9923A9F0F92F96E9BB279395F69576
:100C0000879577956795B795F111F8CFFAF4BB0FF3
:100C100011F460FF1BC06F5F7F4F8F4F9F4F16C057
:100C2000882311F096E911C0772321F09EE8872FE1
:100C3000762F05C0662371F096E8862F70E060E09D
:100C40002AF09A95660F771F881FDAF7880F969516
:100C5000879597F90895990F0008550FAA0BE0E8BA
:100C6000FEEF16161706E807F907C0F0121613066E
:100C7000E407F50798F0621B730B840B950B39F4AE
:100C80000A2661F0232B242B252B21F408950A2614
:100C900009F4A140A6958FEF811D811D089597F954
:100CA0009F6780E870E060E008959FEF80EC089512
:100CB00000240A941616170618060906089500243B
:100CC0000A9412161306140605060895092E0394B5
:100CD000000C11F4882352F0BB0F40F4BF2B11F429
:100CE00060FF04C06F5F7F4F8F4F9F4F089557FD88
:100CF0009058440F551F59F05F3F71F04795880F8A
:100D000097FB991F61F09F3F79F087950895121620
:100D100013061406551FF2CF4695F1DF08C01616CC
:100D200017061806991FF1CF86957105610508947D
:100D30000895E894BB2766277727CB0197F9089594
:100D40008ADF08F48FEF08950BD0C0CFB1DF28F011
:100D5000B6DF18F0952309F0A2CFA7CF1124EACF70
:100D6000C6DFA0F3959FD1F3950F50E0551F629F0A
:100D7000F001729FBB27F00DB11D639FAA27F00DF4
:100D8000B11DAA1F649F6627B00DA11D661F829F1B
:100D90002227B00DA11D621F739FB00DA11D621F00
:100DA000839FA00D611D221F749F3327A00D611D1D
:100DB000231F849F600D211D822F762F6A2F1124FF
:100DC0009F5750408AF0E1F088234AF0EE0FFF1F52
:100DD000BB1F661F771F881F91505040A9F79E3F89
:100DE000510570F05CCFA6CF5F3FECF3983EDCF38B
:100DF000869577956795B795F795E7959F5FC1F7C6
:100E0000FE2B880F911D9695879597F9089597FB6E
:100E1000092E07260AD077FD04D00CD006D000207A
:100E20001AF4709561957F4F0895F6F79095819526
:100E30009F4F0895AA1BBB1B51E107C0AA1FBB1FF0
:100E4000A617B70710F0A61BB70B881F991F5A9556
:100E5000A9F780959095BC01CD010895F894FFCF36
:0A0E60000000C8430000004101013A
:00000001FF
