:100000000C9462000C948A000C948A000C948A0070
:100010000C948A000C948A000C948A000C941A01A7
:100020000C948A000C948A000C948A000C948A0028
:100030000C948A000C948A000C948A000C948A0018
:100040000C948A000C948A000C94C0040C940E0545
:100050000C948A000C948A000C948A000C948A00F8
:100060000C948A000C948A000000000024002700F1
:100070002A0000000000250028002B0000000000DE
:1000800023002600290004040404040404040202DA
:100090000202020203030303030301020408102007
:1000A0004080010204081020010204081020000012
:1000B0000007000201000003040600000000000029
:1000C0000000710611241FBECFEFD8E0DEBFCDBF08
:1000D00011E0A0E0B1E0E6ECF7E102C005900D927E
:1000E000AA38B107D9F712E0AAE8B1E001C01D9221
:1000F000A235B107E1F710E0C4ECD0E004C02297CC
:10010000FE010E94DD0BC23CD107C9F70E941F0906
:100110000C94E10B0C9400009C018A30910508F4CA
:1001200075C010928D0110928C0110928B0110926B
:100130008A011092900110929101109292011092F6
:100140009301109298018091800080939B0180918F
:10015000810080939C011092810010928000109287
:1001600085001092840081E086BB10926F00809120
:10017000B000809399018091B10080939A01109210
:10018000B10082E08093B000C90187709070892B24
:1001900039F443E0369527954A95E1F789EF0AC08F
:1001A000C90183709070892B49F43695279536954F
:1001B00027958CE78093B30086E00DC020FD07C033
:1001C000369527958CE78093B30085E004C08CE7D3
:1001D0008093B30084E080939D0182E087BB1092FE
:1001E000B20030938F0120938E012FB7F89492E0E4
:1001F00093BD80919D018093B100909370008BE03E
:100200008150F1F787E0809381002FBF089580919E
:10021000980108958FB7F894209194013091950139
:100220004091960150919701109298018FBFB901AA
:10023000CA0108951F920F920FB60F921124EF92E8
:10024000FF920F931F932F933F934F935F936F935F
:100250007F938F939F93AF93BF93209184003091AE
:100260008500B09B0BC081E086BB80918A01909194
:100270008B01019690938B0180938A0160918C0190
:1002800070918D016F5F7F4F80918E0190918F01F2
:1002900068177907A8F110928D0110928C01809156
:1002A0008A0190918B01A0E0B0E0DC0199278827BA
:1002B00040E050E0820F931FA41FB51F20919001D2
:1002C0003091910140919201509193017C018D01F7
:1002D000E21AF30A040B150BE0929401F0929501D7
:1002E0000093960110939701809390019093910150
:1002F000A0939201B093930181E08093980104C090
:1003000070938D0160938C01BF91AF919F918F91FC
:100310007F916F915F914F913F912F911F910F911D
:10032000FF90EF900F900FBE0F901F901895EF92D7
:10033000FF920F931F937A018B01882329F1CB0140
:10034000BA0120E030E04FE753E40E94080B882315
:100350002CF0109278018FEF87BD3EC0C801B70125
:1003600020E030E048EC52E40E94B909181624F06D
:1003700081E08093780124C010927801C801B70110
:100380000E942A0A67BD28C0CB01BA0120E030E0F4
:100390004CE852E40E94080B88232CF0109279015B
:1003A00086E488BD19C0C801B70120E030E048EC00
:1003B00051E40E94B909181644F081E08093790154
:1003C00087E060E00E94320907C010927901C801FD
:1003D000B7010E942A0A68BD16BC1F910F91FF90B9
:1003E000EF9008958FE061E00E9432098EE061E0B5
:1003F0000E94320980E040E050E060E070E00E943E
:100400009701089581E161E00E94320980E161E095
:100410000E94320981E040E050E060E070E00E941C
:10042000970108958FE061E00E9432098EE060E05C
:100430000E94320908958EE061E00E9432098FE047
:1004400060E00E943209089581E161E00E94320972
:1004500080E160E00E943209089580E161E00E943D
:10046000320981E160E00E9432090895CF93DF9361
:10047000EB016734710534F46C3071052CF40E9483
:10048000F20116C0C6E4D0E0882319F00E941B02D6
:1004900002C00E94120280E392E060E071E00E94DC
:1004A000120880E392E0BE014AE050E00E94F307A8
:1004B000DF91CF910895CF93DF93EB016F3F7105EB
:1004C00009F034F4643671052CF40E94020216C05F
:1004D000CFEFD0E0882319F00E942D0202C00E94C5
:1004E000240280E392E06AE071E00E94120880E357
:1004F00092E0BE014AE050E00E94F307DF91CF9105
:100500000895EF92FF920F931F937B018C0180E37C
:1005100092E064E171E00E94120880E392E0B80189
:10052000A70122E030E00E94F908C801B70120E0ED
:1005300030E040E050E00E94B909882321F481E0D6
:1005400060E070E056C0C801B70120E030E040E054
:1005500050E00E94B909882334F580E392E06EE10F
:1005600071E00E941208C801B70120E030E044E3C6
:1005700052EC0E940C0B20E030E048EC51E40E9469
:1005800055097B018C0180E392E0B801A70122E0CC
:1005900030E00E94F908C801B7010E94250A9B01BA
:1005A000AC0180E025C080E392E06EE171E00E9442
:1005B0001208C801B70120E030E044E352E40E9491
:1005C0000C0B20E030E048EC51E40E9455097B011F
:1005D0008C0180E392E0B801A70122E030E00E94A4
:1005E000F908C801B7010E94250A9B01AC0181E00E
:1005F000B9010E9436021F910F91FF90EF9008956C
:10060000EF92FF920F931F937B018C0180E392E0A6
:1006100065E271E00E94120880E392E0B801A70150
:1006200022E030E00E94F908C801B70120E030E084
:1006300040E050E00E94B909882321F481E060E0A5
:1006400070E056C0C801B70120E030E040E050E063
:100650000E94B909882334F580E392E060E371E0F9
:100660000E941208C801B70120E030E04BE153ECD2
:100670000E940C0B20E030E048EC52E40E94550947
:100680007B018C0180E392E0B801A70122E030E019
:100690000E94F908C801B7010E94250A9B01AC011C
:1006A00080E025C080E392E060E371E00E941208E0
:1006B000C801B70120E030E04BE153E40E940C0B8D
:1006C00020E030E048EC52E40E9455097B018C01A7
:1006D00080E392E0B801A70122E030E00E94F9082F
:1006E000C801B7010E94250A9B01AC0181E0B90154
:1006F0000E945B021F910F91FF90EF9008950E945E
:100700000701882309F423C10E940A0160939E0116
:1007100070939F018093A0019093A1010E94560ABB
:100720002AE037ED43EA5CE30E94BD090E94250AF6
:100730007093A3016093A201672B69F460E070E0FD
:1007400080E090E00E94000360E070E080E090E0D4
:100750000E948102089580E392E068E371E00E94C4
:1007600012086091A2017091A30180E392E04AE037
:1007700050E00E94F3072091A2013091A301C9012A
:1007800068EE73E00E94920B7093A7016093A6013C
:10079000C90168EE73E00E94920B9093A5018093CB
:1007A000A40180E392E06FE371E00E94120860917F
:1007B000A6017091A70180E392E04AE050E00E9418
:1007C000E00780E392E065E471E00E941208609126
:1007D000A4017091A50180E392E04AE050E00E94FC
:1007E000F3078091A6019091A7010197449730F0FB
:1007F0008AE090E09093A7018093A6018091A401E4
:100800009091A501C2978558934030F084EF91E014
:100810009093A5018093A4018091A4019091A501DA
:1008200023E0853892071CF084E893E005C0843605
:10083000910534F484E690E09093A5018093A4019F
:1008400020917601309177014091A4015091A5014A
:10085000C901C196841795074CF0C901C197481783
:10086000590724F03093A5012093A40180E392E07E
:100870006CE471E00E9412086091A6017091A701DA
:1008800080E392E04AE050E00E94E00780E392E0DB
:1008900065E471E00E9412086091A4017091A501C5
:1008A00080E392E04AE050E00E94F3072091A40127
:1008B0003091A5012A30310529F460E070E080E034
:1008C00090E019C024563040B901882777FD809503
:1008D000982F0E94580A20916E0130916F0140912B
:1008E0007001509171010E94BD0920E030E040E8A4
:1008F0005FE30E9454090E9481022091A601309179
:10090000A70181E0243F380739F460E070E080E01F
:1009100090E00E940003089521503040B9018827DB
:1009200077FD8095982F0E94580A2091720130918E
:10093000730140917401509175010E94BD0920E03E
:1009400030E040E85FE30E9454090E9400030895EC
:100950000F931F9300E312E0C80140E052EC61E006
:1009600070E00E944905C80169E571E00E940C0928
:1009700084E190E00E948C001F910F9108950895EA
:100980001F920F920FB60F9211242F933F934F9304
:100990008F939F93EF93FF938091C00082FD1DC0C2
:1009A0004091C6002091E8013091E9012F5F3F4F4F
:1009B0002F7330708091EA019091EB01281739076D
:1009C00071F0E091E801F091E901E855FE4F4083B4
:1009D0003093E9012093E80102C08091C600FF91A5
:1009E000EF919F918F914F913F912F910F900FBE5B
:1009F0000F901F901895E0913C02F0913D02E05C51
:100A0000FF4F8191919120813181821B930B8F73D4
:100A10009070892B11F00E94BF0408951F920F92CD
:100A20000FB60F9211242F933F938F939F93EF93C1
:100A3000FF9320912C0230912D0280912E029091F3
:100A40002F022817390731F48091C1008F7D8093E0
:100A5000C10014C0E0912E02F0912F02E451FE4F2C
:100A6000208180912E0290912F0201968F739070B9
:100A700090932F0280932E022093C600FF91EF9156
:100A80009F918F913F912F910F900FBE0F901F90CC
:100A90001895AF92BF92DF92EF92FF920F931F9340
:100AA000CF93DF93EC017A018B01DD24D39491E0A5
:100AB000A92EB12CEC89FD89DD2069F0C50108A0C3
:100AC00002C0880F991F0A94E2F7808360E874E8F7
:100AD0008EE190E005C0108260E472E48FE090E067
:100AE000A80197010E94A50B215030404040504082
:100AF000569547953795279580E12030380720F0A7
:100B0000DD2011F0DD24D6CFE889F9893083EA8928
:100B1000FB89208319A2EE89FF89408121E030E022
:100B2000C9010C8C02C0880F991F0A94E2F7482B68
:100B30004083EE89FF894081C9010D8C02C0880F76
:100B4000991F0A94E2F7482B4083EE89FF89408180
:100B5000C9010E8C02C0880F991F0A94E2F7482B36
:100B60004083EE89FF8980810F8C02C0220F331FE2
:100B70000A94E2F7209528232083DF91CF911F91DB
:100B80000F91FF90EF90DF90BF90AF900895DC0140
:100B90001C96ED91FC911D97E05CFF4F21913191E6
:100BA00080819181281B390B2F733070C901089502
:100BB000DC011C96ED91FC911D97E05CFF4F2081BC
:100BC0003181E054F040DF01AE5BBF4F8D919C91CD
:100BD00011972817390719F42FEF3FEF07C08D91B0
:100BE0009C91E80FF91F8081282F30E0C9010895FA
:100BF000DC011C96ED91FC911D97E05CFF4F20817C
:100C00003181E054F040DF01AE5BBF4F8D919C918C
:100C100011972817390719F42FEF3FEF10C08D9166
:100C20009C911197E80FF91F20818D919C9111974C
:100C300001968F73907011969C938E9330E0C9014A
:100C40000895DC0191968C919197882339F0549600
:100C5000ED91FC915597808186FFF9CF91961C927A
:100C60000895CF93DF93EC01EE85FF85E05CFF4FA5
:100C700020813181E054F0402F5F3F4F2F7330705F
:100C8000DF01AE5BBF4F8D919C91119728173907FB
:100C9000D1F3E05CFF4F80819181E054F040E80F98
:100CA000F91F6083EE85FF85E05CFF4F3183208371
:100CB000EE89FF89208181E090E00F8C02C0880FCF
:100CC000991F0A94E2F7282B208381E089A3EC89FD
:100CD000FD8980818064808381E090E0DF91CF9105
:100CE0000895109233021092320288EE93E0A0E051
:100CF000B0E08093340290933502A0933602B09313
:100D000037028EE791E0909331028093300288EAB7
:100D100091E090933D0280933C028CEE91E09093A1
:100D20003F0280933E0285EC90E0909341028093D5
:100D3000400284EC90E0909343028093420280EC66
:100D400090E0909345028093440281EC90E0909370
:100D500047028093460282EC90E090934902809390
:100D6000480286EC90E090934B0280934A0284E024
:100D700080934C0283E080934D0287E080934E0283
:100D800085E080934F0281E0809350020895CF92D6
:100D9000DF92EF92FF920F931F93CF93DF937C012B
:100DA0006B018A01C0E0D0E00FC0D6016D916D01EA
:100DB000D701ED91FC910190F081E02DC7010995DB
:100DC000C80FD91F015010400115110571F7CE0150
:100DD000DF91CF911F910F91FF90EF90DF90CF9017
:100DE0000895EF92FF920F931F938C01DC01ED9118
:100DF000FC910190F081E02D6DE009957C01D80116
:100E0000ED91FC910190F081E02DC8016AE0099517
:100E10009C012E0D3F1DC9011F910F91FF90EF9076
:100E20000895CF93DF93EC016115710519F420E06B
:100E300030E00FC0DB010D900020E9F71197A61BF1
:100E4000B70BE881F9810280F381E02DAD010995AE
:100E50009C01C901DF91CF9108954F925F927F92DB
:100E60008F929F92AF92BF92CF92DF92EF92FF92BA
:100E70000F931F93DF93CF93CDB7DEB7A1970FB634
:100E8000F894DEBF0FBECDBF2C01742ECB012230F3
:100E900008F42AE019A231E2C32ED12CCC0EDD1EBB
:100EA000822E9924AA24BB24672D752FA5019401B5
:100EB0000E94A50B79018A01C801B701A50194011F
:100EC0000E94730B472D461B0894C108D1084A3075
:100ED00014F4405D01C0495CF6014083E114F10463
:100EE0000105110521F07E2C5F2DC801DDCFC20167
:100EF000B6010E941107A1960FB6F894DEBF0FBE8F
:100F0000CDBFCF91DF911F910F91FF90EF90DF90B8
:100F1000CF90BF90AF909F908F907F905F904F90B9
:100F20000895DC012115310541F4ED91FC9101900A
:100F3000F081E02D642F099508950E942D070895F2
:100F4000CF92DF92EF92FF920F931F93CF93DF9395
:100F5000EC016A017B012115310541F4E881F98139
:100F60000190F081E02D642F09951FC02A303105D2
:100F7000D1F477FF17C0E881F9810190F081E02D6D
:100F80006DE209958C0144275527BA014C195D097A
:100F90006E097F09CE012AE00E942D079801280FD3
:100FA000391F04C02AE00E942D079C01C901DF916E
:100FB000CF911F910F91FF90EF90DF90CF90089508
:100FC000EF92FF920F931F937B019A010027F7FC8A
:100FD0000095102FB801A7010E94A0071F910F9143
:100FE000FF90EF900895CF92DF92EF92FF920F93D0
:100FF0001F936C017B019A010027F7FC0095102FCD
:10100000B801A7010E94A0078C01C6010E94F10649
:10101000080F191FC8011F910F91FF90EF90DF90EB
:10102000CF9008950E94110708957F928F929F920A
:10103000AF92BF92CF92DF92EF92FF920F931F93E6
:10104000CF93DF934C017A018B01722ECB01BA0151
:10105000A80197010E946F0B882321F0C40160E66C
:1010600071E021C0C0E0D0E057016801E894D7F8F2
:10107000C601B5012FEF3FEF4FE75FE70E946F0B0F
:10108000882351F4C601B5012FEF3FEF4FE75FE72B
:101090000E94B909181614F0C1E0D0E0219739F088
:1010A000C40164E671E00E941107EC0193C0C8011D
:1010B000B7012FEF3FEF4FE75FE40E94080B1816D0
:1010C00054F0C801B7012FEF3FEF4FE75FEC0E94EC
:1010D000B909882324F4C40168E671E0E4CFC801AB
:1010E000B70120E030E040E050E00E94B90987FD00
:1010F00003C0C0E0D0E00EC0D401ED91FC9101909E
:10110000F081E02DC4016DE20995EC0117FB10950B
:1011100017F9109520E030E040E05FE3DD240BC0DC
:10112000CA01B90120E030E040E251E40E94BD096B
:101130009B01AC01D394D71498F3C801B7010E9466
:1011400055095B016C010E942A0A7B018C01C401D4
:10115000B801A7012AE030E00E949107C80FD91F0B
:10116000772039F0C4016CE671E00E941107C80FC6
:10117000D91FC801B7010E94560A9B01AC01C601E4
:10118000B5010E94540924C020E030E040E251E45F
:101190000E940C0B7B018C010E94250A5B016C01F3
:1011A000CC24B7FCC094DC2CC401B601A5012AE014
:1011B00030E00E94A007C80FD91FC601B5010E94E8
:1011C000580A9B01AC01C801B7010E9454097A94E6
:1011D0007720D1F6CE01DF91CF911F910F91FF9033
:1011E000EF90DF90CF90BF90AF909F908F907F90C7
:1011F0000895EF92FF920F931F937C010E941508B0
:101200008C01C7010E94F106080F191FC8011F9128
:101210000F91FF90EF900895EF92FF920F931F931D
:101220007C010E9411078C01C7010E94F106080F82
:10123000191FC8011F910F91FF90EF900895CF9350
:10124000DF930E942E090E94A804CBEFD4E00E94F5
:101250007F032097E1F30E94FB04F9CF789410926A
:10126000C1000895282F30E0C90186569F4FFC0128
:1012700094912A573F4FF90184918823A1F0E82FD8
:10128000F0E0EE0FFF1FEE58FF4FA591B4912FB77E
:10129000F894662321F48C919095892302C08C9157
:1012A000892B8C932FBF08955058BB27AA270ED0A7
:1012B00075C166D130F06BD120F031F49F3F11F44D
:1012C0001EF45BC10EF4E095E7FB51C1E92F77D125
:1012D00080F3BA17620773078407950718F071F453
:1012E0009EF58FC10EF4E0950B2EBA2FA02D0B01A9
:1012F000B90190010C01CA01A0011124FF27591B5B
:1013000099F0593F50F4503E68F11A16F040A22F60
:10131000232F342F4427585FF3CF469537952795D1
:10132000A795F0405395C9F77EF41F16BA0B620BD0
:10133000730B840BBAF09150A1F0FF0FBB1F661F17
:10134000771F881FC2F70EC0BA0F621F731F841F5A
:1013500048F4879577956795B795F7959E3F08F080
:10136000B3CF9395880F08F09927EE0F979587953F
:101370000895D9D008F481E008950CD00FC107D1A9
:1013800040F0FED030F021F45F3F19F0F0C0511171
:1013900039C1F3C014D198F39923C9F35523B1F39C
:1013A000951B550BBB27AA2762177307840738F0D4
:1013B0009F5F5F4F220F331F441FAA1FA9F333D033
:1013C0000E2E3AF0E0E830D091505040E695001CE7
:1013D000CAF729D0FE2F27D0660F771F881FBB1FA3
:1013E000261737074807AB07B0E809F0BB0B802D7D
:1013F000BF01FF2793585F4F2AF09E3F510568F0C9
:10140000B6C000C15F3FECF3983EDCF3869577955C
:101410006795B795F7959F5FC9F7880F911D9695CA
:10142000879597F90895E1E0660F771F881FBB1F26
:10143000621773078407BA0720F0621B730B840BD3
:10144000BA0BEE1F88F7E095089504D06894B111A7
:10145000D9C00895BCD088F09F5790F0B92F992734
:10146000B751A0F0D1F0660F771F881F991F1AF0AF
:10147000BA95C9F712C0B13081F0C3D0B1E0089578
:10148000C0C0672F782F8827B85F39F0B93FCCF3F9
:10149000869577956795B395D9F73EF490958095A5
:1014A000709561957F4F8F4F9F4F0895E89409C0C5
:1014B00097FB3EF490958095709561957F4F8F4F87
:1014C0009F4F9923A9F0F92F96E9BB279395F6959D
:1014D000879577956795B795F111F8CFFAF4BB0F1B
:1014E00011F460FF1BC06F5F7F4F8F4F9F4F16C07F
:1014F000882311F096E911C0772321F09EE8872F09
:10150000762F05C0662371F096E8862F70E060E0C4
:101510002AF09A95660F771F881FDAF7880F96953D
:10152000879597F90895990F0008550FAA0BE0E8E1
:10153000FEEF16161706E807F907C0F01216130695
:10154000E407F50798F0621B730B840B950B39F4D5
:101550000A2661F0232B242B252B21F408950A263B
:1015600009F4A140A6958FEF811D811D089597F97B
:101570009F6780E870E060E008959FEF80EC089539
:1015800000240A9416161706180609060895002462
:101590000A9412161306140605060895092E0394DC
:1015A000000C11F4882352F0BB0F40F4BF2B11F450
:1015B00060FF04C06F5F7F4F8F4F9F4F089557FDAF
:1015C0009058440F551F59F05F3F71F04795880FB1
:1015D00097FB991F61F09F3F79F087950895121648
:1015E00013061406551FF2CF4695F1DF08C01616F4
:1015F00017061806991FF1CF8695710561050894A5
:101600000895E894BB2766277727CB0197F90895BB
:101610008ADF08F48FEF08950BD0C0CFB1DF28F038
:10162000B6DF18F0952309F0A2CFA7CF1124EACF97
:10163000C6DFA0F3959FD1F3950F50E0551F629F31
:10164000F001729FBB27F00DB11D639FAA27F00D1B
:10165000B11DAA1F649F6627B00DA11D661F829F42
:101660002227B00DA11D621F739FB00DA11D621F27
:10167000839FA00D611D221F749F3327A00D611D44
:10168000231F849F600D211D822F762F6A2F112426
:101690009F5750408AF0E1F088234AF0EE0FFF1F79
:1016A000BB1F661F771F881F91505040A9F79E3FB0
:1016B000510570F05CCFA6CF5F3FECF3983EDCF3B2
:1016C000869577956795B795F795E7959F5FC1F7ED
:1016D000FE2B880F911D9695879597F9089523DF26
:1016E000880B990B0895629FD001739FF001829F30
:1016F000E00DF11D649FE00DF11D929FF00D839FA1
:10170000F00D749FF00D659FF00D9927729FB00D3D
:10171000E11DF91F639FB00DE11DF91FBD01CF0150
:101720001124089597FB092E07260AD077FD04D0CF
:101730002ED006D000201AF4709561957F4F089541
:10174000F6F7909581959F4F0895A1E21A2EAA1B56
:10175000BB1BFD010DC0AA1FBB1FEE1FFF1FA21761
:10176000B307E407F50720F0A21BB30BE40BF50B5E
:10177000661F771F881F991F1A9469F760957095E7
:10178000809590959B01AC01BD01CF010895AA1BE6
:10179000BB1B51E107C0AA1FBB1FA617B70710F05C
:1017A000A61BB70B881F991F5A95A9F7809590958E
:1017B000BC01CD010895EE0FFF1F0590F491E02DBF
:0617C0000994F894FFCF2C
:1017C6006632622056616C3A200072326C20566195
:1017D6006C3A20006D6F766556616C3A20006D6F2D
:1017E60076653A2000737465657256616C3A20001E
:1017F60073746565723A2000467265713A2000720C
:10180600326C3A2000206632623A200041667465E6
:10181600723A2072326C3A200048616C6C6F21007B
:101826006E616E00696E66006F7666002E000000BF
:10183600C84300001041F401010100000000310618
:0A184600C706C705F805D8052106FE
:00000001FF
