:100000000C9461000C947E000C947E000C947E0095
:100010000C947E000C947E000C947E000C94800066
:100020000C947E000C947E000C947E000C947E0058
:100030000C947E000C947E000C947E000C947E0048
:100040000C9462020C947E000C947E000C947E0052
:100050000C947E000C947E000C947E000C947E0028
:100060000C947E000C947E00000000002400270009
:100070002A0000000000250028002B0000000000DE
:1000800023002600290004040404040404040202DA
:100090000202020203030303030301020408102007
:1000A0004080010204081020010204081020000012
:1000B0000007000201000003040600000000000029
:1000C000000011241FBECFEFD8E0DEBFCDBF11E08E
:1000D000A0E0B1E0EAE6FAE002C005900D92A4309B
:1000E000B107D9F711E0A4E0B1E001C01D92AC3135
:1000F000B107E1F70E9453020C9433050C94000001
:100100001F920F920FB60F921124EF92FF920F934E
:100110001F932F933F934F935F936F937F938F938F
:100120009F93AF93BF932091840030918500B09B43
:100130000BC081E086BB809104019091050101967E
:10014000909305018093040160910601709107016D
:100150006F5F7F4F809108019091090168177907BF
:10016000A8F110920701109206018091040190916C
:100170000501A0E0B0E0DC019927882740E050E0CD
:10018000820F931FA41FB51F20910A0130910B010C
:1001900040910C0150910D017C018D01E21AF30A8E
:1001A000040B150BE0920E01F0920F010093100169
:1001B0001093110180930A0190930B01A0930C01FD
:1001C000B0930D0181E08093120104C07093070188
:1001D00060930601BF91AF919F918F917F916F9135
:1001E0005F914F913F912F911F910F91FF90EF9051
:1001F0000F900FBE0F901F9018958FE061E00E9446
:1002000030038EE061E00E943003089581E161E0F7
:100210000E94300380E161E00E94300308958FE086
:1002200061E00E9430038EE060E00E943003089598
:100230008EE061E00E9430038FE060E00E943003B6
:1002400008950F931F93162F072F882319F00E94EC
:10025000180102C00E940F01812F902F9C0137FFCF
:1002600002C020E030E02B30310514F02AE030E00D
:10027000B901882777FD8095982F0E94200420E0FF
:1002800030E044E153E40E94D0040E94ED037093F7
:100290000301609302011F910F910895EF92FF9265
:1002A0000F931F937B018C0120E030E040E050E091
:1002B0000E94E903882319F40E94FD0034C0C8019C
:1002C000B70120E030E040E050E00E94E9038823DD
:1002D000A4F4C801B70120E030E040E251EC0E94F4
:1002E000D00420E030E040E050E00E9485030E940E
:1002F000ED039B01AC0180E013C0C801B70120E011
:1003000030E040E251E40E94D00420E030E040E0E0
:1003100050E00E9485030E94ED039B01AC0181E047
:10032000B9010E9421011F910F91FF90EF90089554
:1003300081E161E00E94300380E160E00E943003CF
:10034000089580E161E00E94300381E160E00E9455
:10035000300308950F931F93162F072F882319F04A
:100360000E94A10102C00E949801812F902F9C0140
:1003700037FF02C020E030E02536310514F024E6D6
:1003800030E0B901882777FD8095982F0E942004DE
:1003900020E030E044E153E40E94D0040E94ED03E9
:1003A00070930101609300011F910F910895EF92E6
:1003B000FF920F931F937B018C0120E030E040E01F
:1003C00050E00E94E903882319F40E94060134C01A
:1003D000C801B70120E030E040E050E00E94E903AE
:1003E0008823A4F4C801B70120E030E048EC52ECC7
:1003F0000E94D00420E030E040E050E00E948503FD
:100400000E94ED039B01AC0180E013C0C801B7015D
:1004100020E030E048EC52E40E94D00420E030E0DC
:1004200040E050E00E9485030E94ED039B01AC0177
:1004300081E0B9010E94AA011F910F91FF90EF90F6
:10044000089582E061E00E94300383E061E00E9451
:100450003003089581E161E00E94F10280E161E0F2
:100460000E94F1028FE061E00E94F1028EE061E003
:100470000E94F10282E061E00E94F10283E061E00B
:100480000E94F10260E070E080E090E00E94D701FD
:1004900060E070E080E090E00E944E010E94A101C7
:1004A0000E9418010895CF93DF930E94B6020E9424
:1004B0002A02C0E0D0E00E9421022097E1F30E94CE
:1004C0000000F9CF1F920F920FB60F9211242F93B5
:1004D0003F934F935F936F937F938F939F93AF93CC
:1004E000BF9320911701309118014091190150914B
:1004F0001A0170911B01DA01C9010296A11DB11DFB
:10050000672F6A5F6D3730F06D57DA01C9010396C6
:10051000A11DB11D60931B018093170190931801D9
:10052000A0931901B0931A018091130190911401C5
:10053000A0911501B09116010196A11DB11D8093E6
:10054000130190931401A0931501B0931601BF916C
:10055000AF919F918F917F916F915F914F913F915B
:100560002F910F900FBE0F901F901895789484B51F
:10057000826084BD84B5816084BD85B5826085BD9F
:1005800085B5816085BDEEE6F0E080818160808385
:10059000E1E8F0E010828081826080838081816068
:1005A0008083E0E8F0E0808181608083E1EBF0E02F
:1005B000808184608083E0EBF0E0808181608083D3
:1005C000EAE7F0E0808184608083808182608083BC
:1005D0008081816080838081806880831092C100E7
:1005E0000895CF93DF93482F50E0CA0186569F4F5E
:1005F000FC0134914A575F4FFA018491882369F1D5
:1006000090E0880F991FFC01E859FF4FA591B49124
:10061000FC01EE58FF4FC591D491662351F42FB7DA
:10062000F8948C91932F909589238C9388818923BA
:100630000BC0623061F42FB7F8948C91932F909592
:1006400089238C938881832B88832FBF06C09FB713
:10065000F8948C91832B8C939FBFDF91CF91089559
:10066000482F50E0CA0182559F4FFC012491CA01D6
:1006700086569F4FFC0194914A575F4FFA0134917F
:10068000332309F440C0222351F1233071F0243088
:1006900028F42130A1F0223011F514C02630B1F039
:1006A0002730C1F02430D9F404C0809180008F77C6
:1006B00003C0809180008F7D8093800010C084B53E
:1006C0008F7702C084B58F7D84BD09C08091B00052
:1006D0008F7703C08091B0008F7D8093B000E32FAF
:1006E000F0E0EE0FFF1FEE58FF4FA591B4912FB72A
:1006F000F894662321F48C919095892302C08C9103
:10070000892B8C932FBF08955058BB27AA270ED052
:100710000DC1FED030F003D120F031F49F3F11F431
:100720001EF4F3C00EF4E095E7FBE9C0E92F0FD10A
:1007300080F3BA17620773078407950718F071F4FE
:100740009EF527C10EF4E0950B2EBA2FA02D0B01BC
:10075000B90190010C01CA01A0011124FF27591B06
:1007600099F0593F50F4503E68F11A16F040A22F0C
:10077000232F342F4427585FF3CF4695379527957D
:10078000A795F0405395C9F77EF41F16BA0B620B7C
:10079000730B840BBAF09150A1F0FF0FBB1F661FC3
:1007A000771F881FC2F70EC0BA0F621F731F841F06
:1007B00048F4879577956795B795F7959E3F08F02C
:1007C000B3CF9395880F08F09927EE0F97958795EB
:1007D000089571D008F481E0089504D06894B111AF
:1007E000D9C00895BCD088F09F5790F0B92F9927B1
:1007F000B751A0F0D1F0660F771F881F991F1AF02C
:10080000BA95C9F712C0B13081F0C3D0B1E00895F4
:10081000C0C0672F782F8827B85F39F0B93FCCF375
:10082000869577956795B395D9F73EF49095809521
:10083000709561957F4F8F4F9F4F0895E89409C041
:1008400097FB3EF490958095709561957F4F8F4F03
:100850009F4F9923A9F0F92F96E9BB279395F69519
:10086000879577956795B795F111F8CFFAF4BB0F97
:1008700011F460FF1BC06F5F7F4F8F4F9F4F16C0FB
:10088000882311F096E911C0772321F09EE8872F85
:10089000762F05C0662371F096E8862F70E060E041
:1008A0002AF09A95660F771F881FDAF7880F9695BA
:1008B000879597F90895990F0008550FAA0BE0E85E
:1008C000FEEF16161706E807F907C0F01216130612
:1008D000E407F50798F0621B730B840B950B39F452
:1008E0000A2661F0232B242B252B21F408950A26B8
:1008F00009F4A140A6958FEF811D811D089597F9F8
:100900009F6780E870E060E008959FEF80EC0895B5
:1009100000240A94161617061806090608950024DE
:100920000A9412161306140605060895092E039458
:10093000000C11F4882352F0BB0F40F4BF2B11F4CC
:1009400060FF04C06F5F7F4F8F4F9F4F089557FD2B
:100950009058440F551F59F05F3F71F04795880F2D
:1009600097FB991F61F09F3F79F0879508951216C4
:1009700013061406551FF2CF4695F1DF08C0161670
:1009800017061806991FF1CF869571056105089421
:100990000895E894BB2766277727CB0197F9089538
:1009A0000BD0C4CFB5DF28F0BADF18F0952309F0DB
:1009B000A6CFABCF1124EECFCADFA0F3959FD1F322
:1009C000950F50E0551F629FF001729FBB27F00DFD
:1009D000B11D639FAA27F00DB11DAA1F649F662752
:1009E000B00DA11D661F829F2227B00DA11D621FA1
:1009F000739FB00DA11D621F839FA00D611D221F5B
:100A0000749F3327A00D611D231F849F600D211D3E
:100A1000822F762F6A2F11249F5750408AF0E1F0E1
:100A200088234AF0EE0FFF1FBB1F661F771F881F2A
:100A300091505040A9F79E3F510570F060CFAACF6A
:100A40005F3FECF3983EDCF3869577956795B79515
:100A5000F795E7959F5FC1F7FE2B880F911D96953F
:0A0A6000879597F90895F894FFCFE9
:040A6A000001000186
:00000001FF
